:400000000010002011000000650200006502000008B500F0F7FF00F02DF9C04610B5154C12232360302000F065FF80225200124B1A608023DB051149196011490A60114A30
:400040001A60E0210901104A1160104A1A6024220F4B1A601D320F4B1A6001320E4B1A6000220E4B1A60002000F0D4FF1123236010BDC046300010400003004040FF008035
:400080000403004041FF00800803004042FF00802800034030010040080100400C02064008B572B6EE23124A1360124A13600022114B1A603632114B1A602232104B1A60C1
:4000C000C32252030F4B1A6008220F4B1A60E0230E4A13600E4A136003220E4B1A6021320D4B1A60FFF79AFF00F01CF908BDC046000002400004024004013F400800044087
:400100000001044008010440180104400003044018030440000404400804044010B5064C2378002B07D1054B002B02D0044800E000BF0123237010BD3001002000000000D0
:400140003013000008B5084B002B03D00748084900E000BF07480368002B00D108BD064B002BFBD09847F9E7000000003013000034010020B00000200000000008B500F059
:4001800077FB06200021074A00F0F4FB00F042FB00F042FA00F0B2F900F0ACFD00F0A2FD08BDC0464C010020F0B583B062B6FFF7E5FF00240025012000F042FAADB2A4B2ED
:4001C0000028F8D0002000F057FA061C012000F053FA2DB26B015D1B75196D09ADB224B263011C1B04196409A4B228B221B200F0FFF8061C00B200F011F9071E164B9F42EE
:4002000006DC002000F0DCF8012000F0E5F813E0124BC3189BB2F9225200934206D8002000F0CEF8002000F0D7F805E0012000F0C7F8002000F0D0F800F02BFF019000F095
:4002400087FB830603D4064B5E809F801C80019800F023FFAFE7C046C40900003BF6FFFF4C01002008B501F037F803680C2B00D1FEE7FEE770B50F4E0F4D13E029686B68B3
:40028000AC68002202E001C901C30432A242FAD1E868002202E0002102C304328242FAD11035013E002EE9D101F01CF8FFF77CFFFEE7C04601000000882D000008B5002351
:4002C0000AE0032B03D89A000949505800E009489900094A88500133282BF2D9FFF7E0FE0022064B1A6080229205054B1A6008BD000000006502000000000020A800002058
:4003000008ED00E0064B1B68002803D080221206134301E05B005B08014A13607047C04680033A4008B580231B06154A13601549154A1160154A136080214904144A1160E2
:4003400080218904134A116080218902124A1160124A1360124A134B1A60E022124B1A60DD3A124B1A60124A124B1A60F122124B1A600022114B1A600120FFF7C3FF08BD0B
:40038000000031408000080088003140000038401000384018003840C001384000003A40A060000000033A4040033A4008013F400100008000023F4004023F40000E3F4032
:4003C00004490A68BF231A4080017F3B18401043086070470001044004490A68EF231A400001DF3B18401043086070470001044008B5021C084B5943002805DA43429BB2C0
:400400005B085B429BB201E083B25B081BB25818111C00F06FFE08BD1027000030B52149002413E063185B109AB2002A11D01D4DAA420ED01B049B0B1B4D5B59834208D0DE
:4004400002D9013294B201E0511E89B28C42E9D30A1C930014495B5883420DD913498A420AD81C1A511C89000F4D4959411A8C4202D9013292B20DE098420BD9002A09D042
:40048000511E8900084C0959091AC01A814201D2013A92B29300D2185000054B9C46604400B230BD72060000341300007106000060F0FFFF0323064A136080210906054ACE
:4004C00011600421044A1160044A13607047C046540100200000314008003140140F3140044A1168044B1B680B43802109010B4313607047080031405401002008B5064B30
:400500001B79002B04D1FFF7D5FF0122024B1A71FFF7E6FF08BDC0465401002010B5041C808E002100F0F6FBA2682A4B1B68002B02DA80235B0300E000231343264A13600C
:40054000264BE2681A60264BA2691A60254BE2691A60254B22691A60244B62691A60244A00211160234B1960A16A1160626A1A600122214B1A60214B1B68EF32A1680A40DD
:40058000402A01D0002A04D11D4A13400122134304E001229343802292051343174A1360002113E023685A189200164BD058164B0340164812581343D20101D5144A134046
:4005C0008A001448844662441360013163688B42E8D810BD80033A4000003A4004003A4018003A401C003A4010003A4014003A4028023A4038023A4018023A4030003A4010
:40060000FFFFFFDF002D000000370080082D0000FFFEFFFF80003A40074B1B685B0306D5054A1368802149020B43136002E00122024B1A607047C04604003A4024003A40A6
:40064000011C431E012B11D8094A0A4B1B6801201840013A002803D18B0701D5002AF4D1002804D00122034B1A6000E000207047FFFFFF0310023A4010B5041C104B1A68C9
:40068000D3009B1ADB000F4AD3185B68834202D8002000F077FB0A4B1A68D3009B1ADB00084AD3185B68A34207D9A400064B9C46644420680004000C00E0002000B210BD1A
:4006C0005C010020102D000080013A40F0B5474680B43C4B1B79002B56D06FE0A3003A4A9A5893050AD5FB00DB1BDB003749CB18DB68DB0705D58020C00004E08020400141
:4007000001E080204000D3051DD4FB00DB1BDB002E4AD318DB685B0710D5FB00DB1BDB00D3189B68E02212011340934206D143085B429BB262002649535208E06300002191
:40074000234A995203E063000021214A9952214B58431E4B9846FE00F51BED004544E96A4018490000F0C6FC00B2A3001A4A9850F31BDB0042469A586B68D318013BA34209
:4007800000D10137013401E000270024012CA5D90F20032100F00AFB0F20104900F0F4FA084B5B79002B09D10122064B5A71074C201CFFF7B3FE226A094B1A6004BC9046E5
:4007C000F0BDC0465C010020002D0000102D00007801002010270000700100203908000020003A4008B5094B1B68002B0CDB084B1B68002BFBDB054A1368802109060B43DE
:4008000013600A2000F0E2FB08BDC04600003A40A0023A4008B5074B1B79DB0706D4FFF755FF044A117901230B431371FFF7DAFF08BDC0465C010020014B1A681A60704760
:4008400010023A4008B50A2000F088FA08BDC04608B500F01DF808BD08B5044A1368802109060B431360FFF7EDFF08BD0000094008B5064B1B78002B04D1FFF7E9FF0122B8
:40088000024B1A70FFF7E8FF08BDC0466401002010B50024194B1C60194A1A4B1A601A4B1A4A13601A4A14601A491B4A11601B4A13601B4B1C600A2000F05AFA0A20032166
:4008C00000F074FA0A20174900F05EFA164B1C60164B1C605222FF32154B1A60154B1C60154B1C60154B1C60154B1C70154B1C70154B1C80154B00221A7010BD0000094005
:4009000000080040600009400701008000030940040309401000FE00100309400002094004020940A5090000C80E0940880E0940480F0940080F0940C80F0940880F0940F2
:4009400080010020840100207E0100207C01002010B50A2000F00CFA054B1C78E4B21A781F218A431A700A2000F0F8F9201C10BD8401002070B5061C0D1C141E0BD00A200D
:4009800000F0F6F9044B1C60044B1E80044B1D800A2000F0E3F970BD880100208C0100208201002070B5A94B1B68002B00D09847A74B1C88A74B1D68A74B1E680223FF3346
:4009C0001D4235D0A54A13685B005B081360A44B1A7820218A431A70197810220A431A70A04B1B68DB060BD49F4B1A78984B1B889A420AD09A4A117808230B43137004E012
:400A0000974A117802230B431370984A1168984B0B4013600023974A1360924A1360964A13708E4A1368802109060B43136009E1F30602D50022914B1A600A23334200D1C8
:400A400092E08F4B1B685B0758D58E4B1A688A4B1B78002B17D0012B49D18B4B1B88002B0DD00121894B1960894B1B681B19D2B21A700134844A1388013B13803AE00222C9
:400A8000824B1A6036E0834B1B8893422BD901217E4B1960804B1B88934202D99B1A9BB200E0002378490B80072B03D80121724B197014E0082B09D16C490B68A02000025C
:400AC00003430B6000216B4B196008E067490B688020800103430B600821664B1960624B1A70141C06E00222684B1A6002E0002000F048F90422694B1A6035E05B4B1B6862
:400B00009B0431D5B3070DD5654B1B681F211940564A1068564B03401360012014E00821012011E0584B1988083989B219800829F5D8002008E0564B1B681B19514A12681D
:400B4000D2B21A70013401390029F4D1002808D1464A1368802109020B4313600022454B1A600C224D4B1A60B3074AD5EB0615D50023404A13603B4A13603B4B1B78A3425B
:400B800001D1022300E00A232B40354A11780B4320218B4313700022374B1A706B062ED52F4A117820230B4313702F4B1B781C1C3C4A1268D20612D5364A1288D31A324A9F
:400BC0001380394B1A68802149020A431A601968364A0A401A601022224B1A6002E00422244B1A600122324B1A603249194B196031490868102303430B60244B1A60154B51
:400C00001D60154B1B685B071CD51F4B1B88002B0CD01F4B1B681B191B78DBB2274A13600134194A1388013B138002E0FF22234B1A60234B1B681F221340082BE5D10F3A24
:400C4000204B1A60024B1C8070BDC046680100207E010020400F0940000E09400000094084010020880F09407C01002060000940FF5FFFFFC80F094080010020880E09404C
:400C8000CC0F0940400309406C0100206C000940880100208C01002082010020C00F0940080309406400094004020940FFFFFEFF800E0940FF0F0000480F094040020940D6
:400CC00008020940800F0940044A1368802109060B431360F022024B1A60704700023F4008023F40024A116801230B431360704708023F4008B5064B1B78002B04D1012247
:400D0000034B1A70FFF7E0FFFFF7ECFF08BDC0466E01002010B5064A13680724234000021843CB00FF2119400143116010BDC04604030040024A1168024B0B4013607047B6
:400D400000000640FFFFFFBF034B18688023DB05184000D001207047000006401F2318401E3B8340181C014B1860704700E100E01F2318401E3B8340181C014B186070474F
:400D800080E100E001BE704738B5041C0D1C182802D90020FFF7F6FFA400034B9C4664442068256038BDC0464000002070B5041C0E1E032E02D90020FFF7E4FF182C02D9A7
:400DC0000020FFF7DFFF03252540ED00063500F060F9A408A400074B9C46644423680322AA409343AE40351C1D43256000F055F970BDC04600E400E010B5041C06E0084BEE
:400E0000586800F03DF9074B9C46644480231B029C42F4D8024B9868604300F031F910BDB40000200080FFFF30B583B000F0E0F8002848D000F02DF9041C244B1B680722EC
:400E40001A409200131C1833214A12681207920FD3401A1C1F4B19681F4B19401F4B53438020C00184466344DB0B013B5B055B0D0B43A02149031943192A02D8184A13432E
:400E80000BE0184BD31818781A3A174B9B5CC318FF2B00D9FF239B050B430E4A1360134D2B680193302000F0FBF8114A13688021C9050B4313601420FFF79EFF019B2B6055
:400EC000201C00F0EAF803B030BDC046080F0340280003400800064000F800C040420F000000D43FCDF1FF0F482D00003000104000000640F0B583B0041E182C0BD01C286B
:400F000009D0202807D0242805D0282803D02C2801D0302849D100F0BCF80190FFF714FF002803D0FFF706FF012600E00026214A136807218B4313601F4BE3181B78DBB2A9
:400F40001E4A13601E4A13688B4313601D4803687F229343191C1C4BE3181B7813400B430360322000F08CF8182C16D9114F3B680725AB431A1C231C1C3B9B082B401343B7
:400F80003B60322000F07CF83A68AA43231C183B9B082C1C1C4014433C60012E01D1FFF743FF019800F079F802E00020FFF7EAFE03B0F0BD080F0340CDF1FF0F0C0F03408E
:400FC000100F0340180F0340B4F1FF0F08B5034B1B7B584300F054F808BDC046B4000020024B1868800F80077047C0460C020640034B1B68002B01DA012000E000207047B8
:4010000000000640014A024B1A6070476588EDAC3800034010B5041CFFF7E2FFA0421AD0144A136803218B431360134B1B689B0F01D17C2001E086204000FFF7C7FF00F06E
:4010400028F80D4A13689B009B08A40FA4071C43146000F022F8074B1B6803229343064A1268920F01D1023200E001221343014A136010BD140206400C0206400000000030
:401080000230800803D001300238FCD1C046C0467047EFF3108072B6704780F31088704738B5041CFFF7F5FF051C102C05D8104A136803218B43136016E0202C07D80C49B4
:4010C0000B6803229343023A13430B600CE0302C07D807490B6803229343013A13430B6002E00020FFF74EFE281CFFF7D6FF38BD3000104003460B437FD4002243088B42B8
:4011000074D303098B425FD3030A8B4244D3030B8B4228D3030C8B420DD3FF22090212BA030C8B4202D31212090265D0030B8B4219D300E0090AC30B8B4201D3CB03C01AFC
:401140005241830B8B4201D38B03C01A5241430B8B4201D34B03C01A5241030B8B4201D30B03C01A5241C30A8B4201D3CB02C01A5241830A8B4201D38B02C01A5241430AC1
:401180008B4201D34B02C01A5241030A8B4201D30B02C01A5241CDD2C3098B4201D3CB01C01A524183098B4201D38B01C01A524143098B4201D34B01C01A524103098B42C2
:4011C00001D30B01C01A5241C3088B4201D3CB00C01A524183088B4201D38B00C01A524143088B4201D34B00C01A5241411A00D201465241104670475DE0CA0F00D04942B1
:40120000031000D34042534000229C4603098B422DD3030A8B4212D3FC22890112BA030A8B420CD3890192118B4208D3890192118B4204D389013AD0921100E08909C309CF
:401240008B4201D3CB01C01A524183098B4201D38B01C01A524143098B4201D34B01C01A524103098B4201D30B01C01A5241C3088B4201D3CB00C01A524183088B4201D3D2
:401280008B00C01A5241D9D243088B4201D34B00C01A5241411A00D20146634652415B10104601D34042002B00D54942704763465B1000D3404201B5002000F00BF802BDED
:4012C0000029F8D003B5FFF715FF0EBC4243891A1847C0467047C046014B18687047C046280100200E4B70B500251E1C0D4CE41AA410A54204D0AB00F35898470135F8E7C8
:4013000001F030FD084B00251E1C084CE41AA410A54204D0AB00F35898470135F8E770BD702D0000702D0000702D0000782D00000000000034660600C75A0600704F0600FD
:401340002F44060004390600EF2D0600F022060006180600310D060072020600C7F7050031ED0500AFE2050042D80500E9CD0500A4C3050073B9050056AF05004CA50500A2
:40138000559B050072910500A2870500E57D05003B740500A36A05001E610500AB5705004A4E0500FB440500BE3B0500933205007A290500722005007B170500950E050023
:4013C000C1050500FDFC04004AF40400A7EB040016E3040094DA040023D20400C1C9040070C104002FB90400FDB00400DBA80400C8A00400C4980400D0900400EB88040057
:40140000158104004E79040095710400EB6904004F620400C25A040043530400D24B0400704404001B3D0400D43504009A2E04006F27040050200400401904003C120400AB
:40144000450B04005C0404007FFD0300B0F60300EDEF030037E903008DE20300F0DB03005FD50300DACE030062C80300F5C1030095BB030040B50300F7AE0300BAA803002A
:4014800089A20300639C03004896030039900300358A03003C8403004E7E03006B78030093720300C66C0300036703004B6103009E5B0300FB55030062500300D44A030097
:4014C00050450300D63F0300663A030001350300A52F0300532A03000A250300CC1F0300971A03006B15030049100300300B0300210603001B0103001EFC02002AF7020090
:401500003FF202005DED020084E80200B4E30200EDDE02002EDA020078D50200CAD0020025CC020088C70200F4C2020068BE0200E4B9020069B50200F5B0020089AC0200A2
:4015400026A80200CAA30200779F02002B9B0200E6960200AA920200758E0200478A02002186020003820200EC7D0200DC790200D4750200D2710200D86D0200E56902009F
:40158000FA65020015620200375E0200605A02008F560200C6520200034F0200474B020092470200E34302003B4002009A3C0200FE38020069350200DB310200532E020054
:4015C000D12A020055270200DF23020070200200071D0200A319020046160200EE1202009D0F0200510C02000B090200CB050200900202005BFF01002CFC010003F901008C
:40160000DFF50100C0F20100A7EF010093EC010085E901007CE6010079E301007AE0010081DD01008DDA01009ED70100B5D40100D0D10100F0CE010016CC010040C901006C
:401640006FC60100A4C30100DDC001001ABE01005DBB0100A4B80100F1B5010041B3010097B00100F1AD01004FAB0100B2A801001AA6010086A30100F7A001006B9E010079
:40168000E59B010062990100E49601006B940100F5910100848F0100178D0100AE8A010049880100E88501008C83010033810100DE7E01008E7C0100417A0100F877010020
:4016C000B47501007373010035710100FC6E0100C66C0100956A0100676801003C66010016640100F2610100D35F0100B75D01009F5B01008A590100795701006B55010099
:40170000615301005A510100574F0100574D01005A4B0100614901006B47010078450100894301009D410100B43F0100CE3D0100EC3B01000C3A0100303801005736010028
:4017400081340100AE320100DE300100112F0100472D0100802B0100BC290100FB2701003D26010082240100CA22010014210100621F0100B21D0100051C01005B1A010040
:40178000B31801000F1701006D150100CD1301003112010097100100000F01006B0D0100D90B0100490A0100BC08010032070100AA05010025040100A20201002201010082
:4017C000A4FF000029FE0000B0FC000039FB0000C5F9000053F80000E4F6000077F500000CF40000A4F200003EF10000DAEF000078EE000019ED0000BCEB000061EA000004
:4018000008E90000B2E700005DE600000BE50000BBE300006DE2000022E10000D8DF000090DE00004BDD000008DC0000C6DA000087D9000049D800000ED70000D5D500001A
:401840009DD4000068D3000034D2000003D10000D3CF0000A6CE00007ACD000050CC000028CB000002CA0000DDC80000BBC700009AC600007BC500005EC4000042C30000BC
:4018800029C2000011C10000FBBF0000E7BE0000D4BD0000C3BC0000B4BB0000A6BA00009AB9000090B8000088B7000081B600007BB5000078B4000076B3000075B2000070
:4018C00076B1000079B000007DAF000083AE00008AAD000093AC00009EAB0000AAAA0000B7A90000C6A80000D6A70000E8A60000FCA5000011A5000027A400003EA300004C
:4019000058A2000072A100008EA00000AB9F0000CA9E0000EA9D00000B9D00002E9C0000529B0000789A00009F990000C7980000F09700001B97000047960000749500000C
:40194000A3940000D393000004930000379200006A9100009F900000D58F00000D8F0000458E00007F8D0000BA8C0000F68B0000338B0000728A0000B1890000F28800002C
:401980003488000077870000BC86000001860000488500008F840000D8830000228300006D820000B98100000681000054800000A37F0000F37E0000457E0000977D0000D6
:4019C000EA7C00003F7C0000947B0000EB7A0000427A00009B790000F47800004F780000AA7700000677000064760000C27500002175000082740000E37300004573000006
:401A0000A87200000C72000071710000D77000003E700000A56F00000E6F0000776E0000E26D00004D6D0000B96C0000266C0000946B0000026B0000726A0000E26900006E
:401A400054690000C668000038680000AC67000021670000966600000C66000083650000FB64000073640000ED63000067630000E26200005D620000DA61000057610000A4
:401A8000D560000054600000D35F0000545F0000D45E0000565E0000D95D00005C5D0000E05C0000645C0000EA5B0000705B0000F65A00007E5A0000065A00008F59000007
:401AC00018590000A25800002D580000B957000045570000D25600005F560000ED5500007C5500000C5500009C5400002D540000BE53000050530000E352000076520000D7
:401B00000A5200009E51000033510000C950000060500000F64F00008E4F0000264F0000BF4E0000584E0000F24D00008D4D0000284D0000C34C00005F4C0000FC4B000034
:401B4000994B0000374B0000D64A0000754A0000144A0000B449000055490000F6480000984800003A480000DD4700008047000024470000C84600006D4600001246000018
:401B8000B84500005E45000005450000AD44000054440000FD430000A64300004F430000F9420000A34200004E420000F9410000A541000051410000FE400000AB4000006C
:401BC0005840000006400000B53F0000643F0000133F0000C33E0000733E0000243E0000D53D0000873D0000393D0000EB3C00009E3C0000513C0000053C0000B93B0000FB
:401C00006E3B0000233B0000D83A00008E3A0000443A0000FB390000B23900006939000021390000D9380000923800004B38000004380000BE370000783700003337000082
:401C4000EE360000A93600006436000021360000DD3500009A3500005735000014350000D2340000913400004F3400000E340000CD3300008D3300004D3300000D330000AA
:401C8000CE3200008F3200005032000012320000D431000097310000593100001C310000E0300000A3300000673000002C300000F12F0000B62F00007B2F0000402F000005
:401CC000062F0000CD2E0000932E00005A2E0000212E0000E92D0000B12D0000792D0000412D00000A2D0000D32C00009C2C0000652C00002F2C0000F92B0000C42B000017
:401D00008F2B00005A2B0000252B0000F02A0000BC2A0000882A0000552A0000212A0000EE290000BC290000892900005729000025290000F3280000C2280000902800005F
:401D40005F2800002F280000FE270000CE2700009E2700006F2700003F27000010270000E1260000B2260000842600005626000028260000FA250000CD2500009F2500004B
:401D8000722500004625000019250000ED240000C124000095240000692400003E24000013240000E8230000BD23000093230000692300003F23000015230000EB2200003A
:401DC000C22200009922000070220000472200001E220000F6210000CE210000A62100007E210000572100003021000009210000E2200000BB200000952000006E2000008A
:401E00004820000022200000FD1F0000D71F0000B21F00008D1F0000681F0000431F00001E1F0000FA1E0000D61E0000B21E00008E1E00006B1E0000471E0000241E00008B
:401E4000011E0000DE1D0000BB1D0000991D0000761D0000541D0000321D0000101D0000EE1C0000CD1C0000AC1C00008A1C0000691C0000491C0000281C0000071C000088
:401E8000E71B0000C71B0000A71B0000871B0000671B0000481B0000291B0000091B0000EA1A0000CB1A0000AD1A00008E1A0000701A0000511A0000331A0000151A0000C4
:401EC000F7190000DA190000BC1900009F1900008219000065190000481900002B1900000E190000F2180000D5180000B91800009D18000081180000651800004A18000078
:401F00002E18000013180000F8170000DC170000C1170000A71700008C17000071170000571700003D1700002217000008170000EE160000D5160000BB160000A1160000DC
:401F4000881600006F160000551600003C160000241600000B160000F2150000D9150000C1150000A915000091150000781500006115000049150000311500001915000022
:401F800002150000EA140000D3140000BC140000A51400008E14000077140000611400004A140000341400001D14000007140000F1130000DB130000C5130000AF1300007C
:401FC00099130000841300006E13000059130000431300002E1300001913000004130000EF120000DA120000C6120000B11200009D1200008812000074120000601200000E
:402000004C120000381200002412000010120000FC110000E9110000D5110000C2110000AE1100009B1100008811000075110000621100004F1100003C11000029110000FC
:402040001711000004110000F2100000E0100000CD100000BB100000A910000097100000851000007310000062100000501000003E1000002D1000001B1000000A1000006F
:40208000F90F0000E80F0000D70F0000C60F0000B50F0000A40F0000930F0000820F0000720F0000610F0000510F0000400F0000300F0000200F0000100F0000000F000080
:4020C000F00E0000E00E0000D00E0000C00E0000B10E0000A10E0000910E0000820E0000730E0000630E0000540E0000450E0000360E0000270E0000180E0000090E00004E
:40210000FA0D0000EB0D0000DC0D0000CE0D0000BF0D0000B10D0000A20D0000940D0000860D0000780D0000690D00005B0D00004D0D00003F0D0000310D0000240D0000F7
:40214000160D0000080D0000FA0C0000ED0C0000DF0C0000D20C0000C50C0000B70C0000AA0C00009D0C0000900C0000830C0000760C0000690C00005C0C00004F0C000087
:40218000420C0000350C0000290C00001C0C00000F0C0000030C0000F70B0000EA0B0000DE0B0000D20B0000C50B0000B90B0000AD0B0000A10B0000950B0000890B000020
:4021C0007D0B0000710B0000660B00005A0B00004E0B0000430B0000370B00002C0B0000200B0000150B0000090B0000FE0A0000F30A0000E80A0000DC0A0000D10A0000CE
:40220000C60A0000BB0A0000B00A0000A60A00009B0A0000900A0000850A00007A0A0000700A0000650A00005B0A0000500A0000460A00003B0A0000310A0000270A0000A4
:402240001C0A0000120A0000080A0000FE090000F4090000EA090000E0090000D6090000CC090000C2090000B8090000AE090000A40900009B0900009109000087090000B8
:402280007E090000740900006B09000061090000580900004F090000450900003C090000330900002A09000021090000170900000E09000005090000FC080000F308000013
:4022C000EA080000E2080000D9080000D0080000C7080000BF080000B6080000AD080000A50800009C080000940800008B080000830800007A0800007208000069080000C8
:4023000061080000590800005108000048080000400800003808000030080000280800002008000018080000100800000808000000080000F8070000F1070000E9070000DB
:40234000E1070000D9070000D2070000CA070000C2070000BB070000B3070000AC070000A40700009D070000950700008E070000870700007F070000780700007107000068
:402380006A070000620700005B070000540700004D070000460700003F07000038070000310700002A070000230700001C070000150700000F070000080700000107000061
:4023C000FA060000F4060000ED060000E6060000E0060000D9060000D2060000CC060000C5060000BF060000B8060000B2060000AC060000A50600009F06000098060000EF
:40240000920600008C060000860600007F06000079060000730600006D06000067060000610600005B060000550600004F06000049060000430600003D06000037060000F9
:40244000310600002B060000250600001F0600001A060000140600000E0600000806000003060000FD050000F7050000F2050000EC050000E7050000E1050000DC050000A6
:40248000D6050000D1050000CB050000C6050000C0050000BB050000B6050000B0050000AB050000A6050000A00500009B05000096050000910500008B05000086050000EF
:4024C000810500007C05000077050000720500006D05000068050000630500005E05000059050000540500004F0500004A05000045050000400500003B05000036050000D4
:40250000320500002D05000028050000230500001F0500001A05000015050000100500000C0500000705000003050000FE040000F9040000F5040000F0040000EC0400006A
:40254000E7040000E3040000DE040000DA040000D5040000D1040000CD040000C8040000C4040000BF040000BB040000B7040000B3040000AE040000AA040000A6040000B8
:40258000A20400009D0400009904000095040000910400008D0400008904000084040000800400007C0400007804000074040000700400006C0400006804000064040000B3
:4025C000600400005C0400005804000054040000510400004D0400004904000045040000410400003D0400003904000036040000320400002E0400002A0400002704000069
:40260000230400001F0400001C0400001804000014040000110400000D040000090400000604000002040000FF030000FB030000F8030000F4030000F1030000ED030000E3
:40264000EA030000E6030000E3030000DF030000DC030000D8030000D5030000D2030000CE030000CB030000C7030000C4030000C1030000BE030000BA030000B703000029
:40268000B4030000B0030000AD030000AA030000A7030000A4030000A00300009D0300009A0300009703000094030000910300008D0300008A03000087030000840300002F
:4026C000810300007E0300007B0300007803000075030000720300006F0300006C030000690300006603000063030000600300005D0300005A030000570300005403000002
:40270000520300004F0300004C030000490300004603000043030000400300003E0300003B030000380300003503000033030000300300002D0300002A03000028030000A2
:4027400025030000220300001F0300001D0300001A030000170300001503000012030000100300000D0300000A03000008030000050300000303000000030000FD0200001B
:40278000FB020000F8020000F6020000F3020000F1020000EE020000EC020000E9020000E7020000E4020000E2020000DF020000DD020000DB020000D8020000D602000077
:4027C000D3020000D1020000CF020000CC020000CA020000C8020000C5020000C3020000C1020000BE020000BC020000BA020000B7020000B5020000B3020000B10200009B
:40280000AE020000AC020000AA020000A8020000A5020000A3020000A10200009F0200009D0200009A02000098020000960200009402000092020000900200008D0200009C
:402840008B02000089020000870200008502000083020000810200007F0200007D0200007B02000079020000760200007402000072020000700200006E0200006C0200007E
:402880006A02000068020000660200006402000062020000600200005E0200005D0200005B02000059020000570200005502000053020000510200004F0200004D0200003F
:4028C0004B0200004902000048020000460200004402000042020000400200003E0200003C0200003B020000390200003702000035020000330200003202000030020000E1
:402900002E0200002C0200002B0200002902000027020000250200002402000022020000200200001E0200001D0200001B0200001902000018020000160200001402000066
:4029400012020000110200000F0200000D0200000C0200000A020000090200000702000005020000040200000202000000020000FF010000FD010000FC010000FA010000D9
:40298000F8010000F7010000F5010000F4010000F2010000F1010000EF010000EE010000EC010000EA010000E9010000E7010000E6010000E4010000E3010000E10100003B
:4029C000E0010000DE010000DD010000DB010000DA010000D8010000D7010000D6010000D4010000D3010000D1010000D0010000CE010000CD010000CB010000CA0100007A
:402A0000C9010000C7010000C6010000C4010000C3010000C2010000C0010000BF010000BE010000BC010000BB010000B9010000B8010000B7010000B5010000B4010000A2
:402A4000B3010000B1010000B0010000AF010000AD010000AC010000AB010000AA010000A8010000A7010000A6010000A4010000A3010000A2010000A10100009F010000B7
:402A80009E0100009D0100009C0100009A01000099010000980100009701000095010000940100009301000092010000900100008F0100008E0100008D0100008C010000B9
:402AC0008A0100008901000088010000870100008601000085010000830100008201000081010000800100007F0100007E0100007D0100007B0100007A01000079010000AB
:402B000078010000770100007601000075010000740100007201000071010000700100006F0100006E0100006D0100006C0100006B0100006A010000690100006801000088
:402B4000660100006501000064010000630100006201000061010000600100005F0100005E0100005D0100005C0100005B0100005A0100005901000058010000570100005D
:402B8000560100005501000054010000530100005201000051010000500100004F0100004E0100004D0100004C0100004B0100004A0100004901000048010000470100001D
:402BC00046010000450100004401000043010000420100004101000041010000400100003F0100003E0100003D0100003C0100003B0100003A0100003901000038010000D3
:402C00003701000036010000360100003501000034010000330100003201000031010000300100002F0100002E0100002E0100002D0100002C0100002B0100002A01000079
:402C40002901000028010000280100002701000026010000250100002401000023010000230100002201000021010000200100001F0100001E0100001E0100001D01000014
:402C80001C0100001B0100001A01000019010000190100001801000017010000160100001601000015010000140100001301000012010000120100001101000010010000A5
:402CC0000F0100000F0100000E0100000D0100000C0100000B0100000B0100000A01000009010000080100000801000007010000060100000501000005010000040100002B
:402D0000000100000011000007000501050006010000000002000000402E201088000490CA030200020002000002000E00000000030000000000000000000000B004000012
:402D40000100000017000000EEDBC9B9AA9B8E82766B60564D443B332C241D17100A040043000000F8B5C046F8BC08BC9E46704745010000BD020000F8B5C046F8BC08BC2A
:402D80009E4670471D010000982D0000B0000020800000006000000000000000010000000000E02EC05D00001800000000366E0100000000000000000000000000000000FC
:402DC00000000000000000000000000000000000602D0000000000000000000000000000000000000000000000000000000000000000000000000000000000000000000046
:402E000000000000000000000000000000000000C80000200000000000000000000000000000000000000000000000000000000000000000000000000000000000000000AA
:402E40000000000000000000000000000000000000000000000000000000000000000000000000000000000000000000000000000000000000000000000000000000000052
:402E80000000000000000000000000000000000000000000000000000000000000000000000000000000000000000000000000000000000000000000000000000000000012
:402EC00000000000000000000000000000000000000000000000000000000000000000000000000000000000000000000000000000000000000000000000000000000000D2
:402F00000000000000000000000000000000000000000000000000000000000000000000000000000000000000000000000000000000000000000000000000000000000091
:0200000490303A
:0200000051A10C
:0200000490402A
:200000000000000000000000000000000000000000000000000000000000000000000000E0
:0200000490501A
:0C00000000021C0011AC00011C0A634D42
:0200000490600A
:0100000001FE
:00000001FF